:020000040800F2
:100000006807002091010008D9080008D1080008FD
:10001000D508000845040008F30D000800000000A2
:10002000000000000000000000000000590A000865
:10003000B107000800000000610900086D0B00080E
:10004000AB010008AB010008AB010008AB010008E0
:10005000AB010008AB010008AB010008AB010008D0
:10006000AB010008AB010008AB010008AB010008C0
:10007000AB010008AB010008AB010008AB010008B0
:10008000AB010008AB010008AB010008AB010008A0
:10009000AB010008AB010008AB010008AB01000890
:1000A000AB010008AB010008AB010008AB01000880
:1000B000AB010008AB010008AB010008AB01000870
:1000C000AB010008AB010008AB010008AB01000860
:1000D000AB010008D10B0008AB010008AB01000820
:1000E000AB010008AB010008AB01000800F002F80A
:1000F00000F03FF80AA090E8000C82448344AAF183
:100100000107DA4501D100F034F8AFF2090EBAE880
:100110000F0013F0010F18BFFB1A43F0010318473B
:10012000540F0000740F0000103A24BF78C878C143
:10013000FAD8520724BF30C830C144BF04680C60ED
:10014000704700000023002400250026103A28BF35
:1001500078C1FBD8520728BF30C148BF0B60704739
:10016000642900F07780002070471FB51FBD10B5CF
:1001700010BD00F037F91146FFF7F7FF00F0BAFEA7
:1001800000F055F903B4FFF7F2FF03BC00F033FEB3
:100190000948804709480047FEE7FEE7FEE7FEE71B
:1001A000FEE7FEE7FEE7FEE7FEE7FEE70448054957
:1001B000054A064B70470000710B0008ED0000086F
:1001C0006801002068070020680300206803002001
:1001D000704700000FB4044910B503AA029800F05C
:1001E000D3F810BC5DF814FB200000202DE9F0418D
:1001F0000E460446002020622046E168884730B35E
:10020000252805D0D4E901219047206A401CF2E757
:10021000E168204600278847050018D0A5F1410075
:10022000192802D820354FF4006732462946204667
:100230002760FFF795FF40B1012804D0F61D26F096
:1002400007060836D8E7361DD6E72846DAE7206ADB
:10025000BDE8F0812DE9F0410646002410687529BB
:10026000314616A510D0AFF30080002802DA4042D4
:1002700013A507E031688A0701D512A502E04907F6
:1002800004D511A5012401E0AFF3008000210A226A
:1002900006F1240709E0B0FBF2FCB0FBF2F302FB2D
:1002A0001C00303078541846491C0028F3D12346EE
:1002B0002A463046BDE8F04100F00CB800000000CE
:1002C0002D0000002B000000200000007047704748
:1002D000704770472DE9F0470D469946924604460F
:1002E00000F124080168880604D5E06921F01001B6
:1002F000216000E00120A84201DD471B00E000274B
:10030000A1697A1902EB0900081AA0612078C006D9
:1003100002D42046AFF30080002608E0D4E9012192
:100320001AF806009047206A401C761C20624E4551
:10033000F4DB2078C0060AD52046AFF3008006E043
:10034000D4E9012130209047206A401C2062381EE9
:10035000A7F10107F4DC07E0D4E9012118F8050052
:100360009047206A401C2062281EA5F10105F3DC9D
:100370002046AFF300802078000602D50220BDE8B9
:10038000F0870120FBE70000074B70B50D467B446A
:1003900000F011F80446284600F020F810B14FF0A4
:1003A000FF3070BD204670BD470B000001694A1C3C
:1003B00002610878704700B58FB0CDE901310021A6
:1003C000059105497944CDE9031011466846FFF7C8
:1003D0000DFF0FB000BD0000E5FFFFFF007B00F048
:1003E00080007047754600F029F8AE460500694662
:1003F000534620F00700854618B020B5FFF7D6FE1B
:10040000BDE820404FF000064FF000074FF0000815
:100410004FF0000B21F00701AC46ACE8C009ACE896
:10042000C009ACE8C009ACE8C0098D467047044675
:10043000AFF300802046FFF7A5FE0000004870479C
:100440000401002000BFFEE710B5044600F0F6F8F6
:1004500022480078001120702048007800F00F003A
:1004600060701E4840780011A0701C48407800F071
:100470000F00E070194880780011207117488078CB
:1004800000F00F0060711548C0780011A07113488A
:10049000C07800F00F00E0711048C07900F007004C
:1004A00020720E480079001160720C48007900F04B
:1004B0000F00A072094840790011E07207484079A6
:1004C00000F00F0020730548807900116073034825
:1004D000807900F00F00A07310BD00001400002010
:1004E00008B501214FF48C7000F03CFA2020ADF8E3
:1004F000000010208DF8030003208DF802006946EB
:10050000154800F056F92020ADF8000010208DF8B5
:10051000030003208DF802006946104800F049F9F5
:100520004FF40040ADF8000010208DF803000320C8
:100530008DF8020069460A4800F03BF9202107487F
:1005400000F0C4F90421074800F0BEF94FF400415F
:10055000034800F0B9F908BD00100140000C01404B
:10056000002001400008014070B5044600202D49DC
:1005700008600A2000F08AFC01202B49C1F8940190
:1005800044F001042948006820F4700027490860FD
:100590000846006840F440100860002616E004F0A9
:1005A000010018B101202249086002E00020204922
:1005B000086001201F4908600A2000F067FC002045
:1005C0001D49C1F8BC016410701CC6B2082EE6DBE0
:1005D0001648006820F47000144908600846006856
:1005E00040F400000860002615E06D1010488038C7
:1005F000006810B145F0800501E005F07F0501209D
:100600000C4908600A2000F041FC00200A49C1F8AA
:10061000BC01701CC6B2082EE7DB0020014908604F
:10062000284670BD9401224200002242000C014085
:1006300094812142BC0124420000244210B58C2048
:10064000FFF792FF114948708820FFF78DFF0F498F
:1006500088708620FFF788FF0C49C8708420FFF758
:1006600083FF0A4908718220FFF77EFF074948711E
:100670008020FFF779FF00F07F00044988718A200D
:10068000FFF772FF0149C87110BD0000140000207F
:1006900070B504460E460020274908600A2000F085
:1006A000F5FB01202549C1F8940104F0FE0424481B
:1006B000006820F47000224908600846006840F491
:1006C00040100860002516E004F0010018B1012078
:1006D0001C49086002E000201A49086001201A49FC
:1006E00008600A2000F0D2FB00201849C1F8BC01C4
:1006F0006410681CC5B2082DE6DB002516E006F084
:10070000010018B101200F49086002E000200D49E6
:10071000086001200C4908600A2000F0B7FB0020A7
:100720000A49C1F8BC017610681CC5B2082DE6DB89
:1007300000200149086070BD94012242000022425D
:10074000000C014094812142BC012442000024425B
:1007500010B500218E20FFF79BFF144841788C20B4
:10076000FFF796FF114881788820FFF791FF0F4827
:10077000C1788620FFF78CFF0C4801798420FFF7B1
:1007800087FF0A4841798220FFF782FF0748817975
:100790008020FFF77DFF0548C1798A20FFF778FFA9
:1007A00080218E20FFF774FF10BD00001400002090
:1007B00070472DE9F0410246002500260020002365
:1007C0000024002791F803C00CF00F0591F803C036
:1007D0000CF0100CBCF1000F03D091F802C04CEAF1
:1007E000050591F800C0BCF1000F31D0146800205D
:1007F0002BE04FF0010C0CFA00F3B1F800C00CEA4A
:1008000003069E4220D183004FF00F0C0CFA03F731
:10081000BC4305FA03FC4CEA040491F803C0BCF1A4
:10082000280F06D14FF0010C0CFA00FCC2F814C0DE
:100830000AE091F803C0BCF1480F05D14FF0010C5C
:100840000CFA00FCC2F810C0401C0828D1D3146078
:10085000B1F800C0BCF1FF0F34DD546800202EE079
:1008600000F1080C4FF0010808FA0CF3B1F800C0D1
:100870000CEA03069E4221D183004FF00F0C0CFAC4
:1008800003F7BC4305FA03FC4CEA040491F803C0E7
:10089000BCF1280F05D100F1080C08FA0CF8C2F8D9
:1008A000148091F803C0BCF1480F07D100F1080C87
:1008B0004FF0010808FA0CF8C2F81080401C082814
:1008C000CED35460BDE8F08141617047016170474B
:1008D00000BFFEE700BFFEE77047000070B50021D3
:1008E00000230F22C47804B3154C246804F4E06498
:1008F000C4F5E064210AC1F10403CA40447804FA53
:1009000003F184781440214309010E4C0678A15567
:10091000047804F01F050124AC4005786D11AD008A
:1009200005F1E025C5F8004109E0047804F01F0551
:100930000124AC40044D0678761145F8264070BD80
:100940000CED00E000E400E080E100E0024901433A
:10095000024A1160704700000000FA050CED00E04B
:100960007047000029B1064A92690243044B9A611C
:1009700004E0034A92698243014B9A617047000088
:100980000010024030B500210022002400232D4D2C
:100990006D6805F00C0121B1042905D0082923D187
:1009A00005E0294D056022E0274D05601FE0254D3B
:1009B0006D6805F47012234D6D6805F480340225CE
:1009C00005EB92421CB9214D554305600BE01D4DCE
:1009D0006D6805F400351DB11C4D5543056002E0FE
:1009E000194D5543056002E0174D056000BF00BF7B
:1009F000144D6D6805F0F0010909154D6B5C056833
:100A0000DD4045600F4D6D6805F4E061090A104D49
:100A10006B5C4568DD4085600A4D6D6805F460518A
:100A2000C90A0B4D6B5C4568DD40C560054D6D68BE
:100A300005F44041890B074D6B5CC568B5FBF3F5C8
:100A4000056130BD0010024000127A0000093D002F
:100A50002600002036000020704710B500F002F894
:100A600010BD00000CB500200190009033480068D4
:100A700040F480303149086000BF3048006800F41D
:100A8000003000900198401C0190009818B901981E
:100A9000B0F5A06FF1D12948006800F4003010B122
:100AA0000120009001E0002000900098012843D12F
:100AB0002348006840F0100021490860084600689B
:100AC00020F0030008600846006840F0020008605B
:100AD0001A48406819494860084640684860084616
:100AE000406840F4806048600846406820F47C100C
:100AF00048600846406840F4E810486008460068CE
:100B000040F08070086000BF0C48006800F0007082
:100B10000028F9D00948406820F0030007494860E0
:100B20000846406840F00200486000BF0348406843
:100B300000F00C000828F9D10CBD000000100240A4
:100B400000200240042808D14FF0E021096941F05B
:100B500004014FF0E022116107E04FF0E021096944
:100B600021F004014FF0E02211617047704700004E
:100B700010B51348006840F00100114908600846AC
:100B80004068104908400E494860084600680E4910
:100B900008400B4908600846006820F4802008607F
:100BA0000846406820F4FE0048604FF41F0088604B
:100BB000FFF753FF4FF000600449086010BD0000CC
:100BC000001002400000FFF8FFFFF6FE08ED00E015
:100BD00010B540F225511D4800F04AF810B31B48EB
:100BE00000F002F9C4B21A48008800F40040C8B905
:100BF0001748008800F4804060B10A2C03D0002020
:100C00001349088020E01248008840F40040104951
:100C1000088019E00D2C06D10D48008840F4804072
:100C20000B49088010E00A480088C0F30D0009490C
:100C30000C5407480088401C054908800846008875
:100C4000C72801DD0020088010BD000000380140E9
:100C5000240000203C00002021B1828942F400528F
:100C6000828104E082894DF6FF731A4082817047C9
:100C700070B50246002400230025002040F66A16C5
:100C8000B14200D100BFC1F3421501F01F0301269C
:100C900006FA03F3012D02D19689334006E0022DB6
:100CA00002D1168A334001E0968A33400C120126A5
:100CB00006FA04F41688344013B10CB1012000E0A8
:100CC000002070BDF0B5034600240026002500205A
:100CD00040F66A17B94200D100BF1846C1F342146A
:100CE00001F01F06012707FA06F5012C01D10C308F
:100CF00004E0022C01D1103000E014301AB1076872
:100D00002F43076002E00768AF430760F0BD0000B3
:100D10002DE9F04786B005460E460024A24600BFE6
:100D2000A1460027B08900B100BF2F462C8A4CF69F
:100D3000FF700440F08804432C82AC894EF6F31017
:100D40000440B08831890843718908430443AC8169
:100D5000AC8A4FF6FF400440B0890443AC8201A83E
:100D6000FFF710FE1F48874202D1DDF810A001E016
:100D7000DDF80CA0A88900F4004040B10AEBCA00DD
:100D800000EB0A1031684900B0FBF1F807E00AEB0C
:100D9000CA0000EB0A1031688900B0FBF1F864204A
:100DA000B8FBF0F004012009642101FB1089A88937
:100DB00000F4004040B1322000EBC900B0FBF1F07C
:100DC00000F00700044308E0322000EB0910642122
:100DD000B0FBF1F000F00F0004432C8106B0BDE839
:100DE000F08700000038014001468888C0F3080001
:100DF000704700BFFEE7014600BF704710B56FF0B7
:100E00000400FFF79FFE0A4800680A49B0FBF1F0B2
:100E1000094908700846007800EB4001C1EBC0109A
:100E20004FF6FF7101EAC0000449088010BD0000C0
:100E30000000002000127A001C0000201E0000208C
:100E40000146114A12884A434FF0E0235A610022BA
:100E50009A611A46126942F001021A6100BF4FF00E
:100E6000E022106900F001021AB100F48032002A79
:100E7000F5D04FF0E022126922F001024FF0E0239A
:100E80001A6100229A6170471E0000200146114A33
:100E900012784A434FF0E0235A6100229A611A46C1
:100EA000126942F001021A6100BF4FF0E02210699E
:100EB00000F001021AB100F48032002AF5D04FF0A0
:100EC000E022126922F001024FF0E0231A610022B1
:100ED0009A6170471C00002000BF054A128802F08A
:100EE0004002002AF9D0C2B2014B1B1D1A80704784
:100EF000003801408AB0FFF781FF4FF4A060FFF790
:100F000025FD4FF4E13000F065F8FFF7E9FA0A201B
:100F1000FFF796FFFFF71CFC0A20FFF791FF1CA0CC
:100F2000FFF758F933E006A8FFF78EFA9DF81F0087
:100F30009DF81E109DF81D209DF81C30CDE9013252
:100F4000CDE903109DF81B0000909DF81A309DF824
:100F500019209DF8181012A0FFF73CF99DF82010F9
:100F60009DF826009DF825209DF82430CDE900321B
:100F7000CDE902019DF823309DF822209DF8211033
:100F80000DA0FFF727F94FF47A70FFF759FFCAE772
:100F900044533133303220544553542C0D0A000051
:100FA0002564256425642564C4EA25642564D4C2C7
:100FB00025642564C8D5200025642564CAB125644C
:100FC0002564B7D625642564C3EB20D0C7C6DA25CF
:100FD000640A000010B586B00446012144F2040002
:100FE000FFF7C0FC4FF40070ADF8140003208DF83B
:100FF000160018208DF8170005A91C48FFF7D9FB2B
:101000004FF48060ADF8140004208DF8170005A996
:101010001648FFF7CEFB25208DF8000003208DF841
:1010200001008DF8020001208DF803006846FFF7EB
:1010300055FC01940020ADF80800ADF80A00ADF8A9
:101040000C00ADF810000C20ADF80E0001A9084806
:10105000FFF75EFE012240F225510548FFF732FE00
:1010600001210348FFF7F8FD06B010BD000801405C
:101070000038014094100008000000203C000000EF
:1010800028010008D01000083C0000202C070000B8
:101090004401000800A24A04000000000000000013
:1010A00001020304060708092017050217130002AE
:1010B000000000000000000000000000000001022D
:1010C00003040102030406070809020406080000DD
:04000005080000ED02
:00000001FF
