:020000040800F2
:1000000080070020CD010008051000080710000837
:100010000B1000080F10000813100008000000006B
:1000200000000000000000000000000017100008A1
:1000300019100008000000001B1000081D10000827
:10004000E7010008E7010008E7010008E7010008F0
:10005000E7010008E7010008E7010008E7010008E0
:10006000E7010008E7010008E7010008E7010008D0
:10007000E7010008E7010008E7010008E7010008C0
:10008000E7010008E7010008E7010008E7010008B0
:10009000E7010008E7010008E7010008E7010008A0
:1000A000E7010008E7010008E7010008E701000890
:1000B000E7010008E7010008E7010008E701000880
:1000C000E7010008E7010008E7010008E701000870
:1000D000E7010008571D0008E7010008E7010008D4
:1000E000E7010008E7010008E7010008E701000850
:1000F000E7010008E7010008E7010008E701000840
:10010000E7010008E7010008E7010008E70100082F
:10011000E7010008E7010008E7010008E70100081F
:10012000E7010008E7010008E7010008E70100080F
:1001300000F002F800F03AF80AA090E8000C8244BF
:100140008344AAF10107DA4501D100F02FF8AFF29C
:10015000090EBAE80F0013F0010F18BFFB1A43F0A5
:1001600001031847EC1C00000C1D0000103A24BFCE
:1001700078C878C1FAD8520724BF30C830C144BF0C
:1001800004680C607047000000230024002500264E
:10019000103A28BF78C1FBD8520728BF30C148BFEA
:1001A0000B6070471FB51FBD10B510BD01F01DFEDF
:1001B0001146FFF7F7FF00F01BFE01F03BFE03B412
:1001C000FFF7F2FF03BC01F06BFD00000948804718
:1001D00009480047FEE7FEE7FEE7FEE7FEE7FEE729
:1001E000FEE7FEE7FEE7FEE704480549054A064B41
:1001F00070470000FF100008310100088001002056
:100200008007002080030020800300203149014343
:10021000314A1160704770B5002100230F22C47865
:1002200004B32D4C246804F4E064C4F5E064210AAE
:10023000C1F10403CA40447804FA03F184781440FD
:1002400021430901254C0678A155047804F01F05C7
:100250000124AC4005786D11AD0005F1E025C5F82D
:10026000004109E0047804F01F050124AC401C4D56
:100270000678761145F8264070BD1A4A0A400243B6
:10028000154B1B1F1A60704739B1134A121D1268B3
:100290000243114B1B1D1A6006E00F4A121D126823
:1002A00082430D4B1B1D1A607047042808D14FF084
:1002B000E021096941F004014FF0E022116107E0FB
:1002C0004FF0E021096921F004014FF0E0221161B3
:1002D000704700000000FA050CED00E000E400E0CB
:1002E00080E100E080FFFF1F10B50446CC48844247
:1002F00008D10121042000F02DFB0021042000F092
:1003000029FB46E0C748844208D10121082000F0BB
:1003100021FB0021082000F01DFB3AE0C248844286
:1003200008D10121102000F015FB0021102000F061
:1003300011FB2EE0BD48844208D10121202000F0AD
:1003400009FB0021202000F005FB22E0B848844290
:1003500008D10121402000F0FDFA0021402000F0EA
:10036000F9FA16E0B348844208D10121802000F058
:10037000F1FA0021802000F0EDFA0AE0AE48844254
:1003800007D10121801500F0E5FA0021A01500F049
:10039000E1FA10BD10B50121084600F0DBFA00219A
:1003A000012000F0D7FA10BD2DE9F04102460025EA
:1003B0000026002000230024002791F803C00CF041
:1003C0000F0591F803C00CF0100CBCF1000F03D026
:1003D00091F802C04CEA050591F800C0BCF1000F8D
:1003E00031D0146800202BE04FF0010C0CFA00F320
:1003F000B1F800C00CEA03069E4220D183004FF002
:100400000F0C0CFA03F7BC4305FA03FC4CEA040496
:1004100091F803C0BCF1280F06D14FF0010C0CFA83
:1004200000FCC2F814C00AE091F803C0BCF1480F08
:1004300005D14FF0010C0CFA00FCC2F810C0401CB2
:100440000828D1D31460B1F800C0BCF1FF0F34DD2F
:10045000546800202EE000F1080C4FF0010808FA63
:100460000CF3B1F800C00CEA03069E4221D18300D0
:100470004FF00F0C0CFA03F7BC4305FA03FC4CEAEF
:10048000040491F803C0BCF1280F05D100F1080C59
:1004900008FA0CF8C2F8148091F803C0BCF1480FB8
:1004A00007D100F1080C4FF0010808FA0CF8C2F867
:1004B0001080401C0828CED35460BDE8F0814FF670
:1004C000FF710180022181700421C17070470246D2
:1004D000002093680B400BB1012000E00020704722
:1004E0000146886880B2704702460020D3680B40FE
:1004F0000BB1012000E0002070470146C86880B2BF
:10050000704701617047416170470AB1016100E0C5
:1005100041617047C16070474FF480320A43826185
:100520008161826182698269704702460020434B83
:1005300018684FF68073184040EA021008433F4B9A
:10054000186070473E49C8617047F0B50A460023FD
:1005500000240021002500F00046B6F1004F02D132
:10056000364EF16901E0354E7168C0F3034583B240
:1005700000F44016B6F5401F08D121F070612F4EEF
:10058000766826F070662D4F7E6012E000F48016CB
:10059000B6F5801F06D1032606FA05F4A14341F003
:1005A000706106E0460D360103FA06F6B14341F0EC
:1005B000706122B1460D360103FA06F6314300F0B0
:1005C0000046B6F1004F02D11C4EF16101E01B4E16
:1005D0007160F0BD30B500228B071C0F0F2303FAAA
:1005E00004F2164B08338C1053F824309343134C09
:1005F00008348D1044F8253023468C1053F82430ED
:100600008C07240F00FA04F423430C4C08348D109B
:1006100044F8253030BD0A49DC31086070470000DD
:1006200000080140000C014000100140001401408E
:1006300000180140001C0140002001400000014062
:1006400000002042DF48006840F00100DD490860FA
:1006500008464068DC490840DA49486008460068B6
:10066000DA490840D74908600846006820F480202D
:1006700008600846406820F4FE0048604FF41F0000
:1006800088607047CF49096821F48031CD4A1160F4
:100690001146096821F480211160B0F5803F03D034
:1006A000B0F5802F0ED106E0C649096841F48031CB
:1006B000C44A116007E0C349096841F4A021C14A56
:1006C000116000E000BF00BF704710B50146002276
:1006D000002300204A11012A02D1BA4C236806E007
:1006E000022A02D1B74C236A01E0B64C636A01F0DA
:1006F0001F02012494401C400CB1012000E00020A6
:1007000010BD38B5002000900024002500BF312026
:10071000FFF7DBFF05460098401C00900098B0F5FD
:10072000A06F01D0002DF2D03120FFF7CEFF08B12D
:10073000012400E00024204638BD01460020A14AE3
:10074000106820F0F80040EAC10010607047A0492E
:1007500008607047024600209A4B586820F47C10CD
:1007600042EA01031843974B58607047984908665E
:10077000704701460020934A506820F00300084368
:10078000506070478F48406800F00C007047014689
:1007900000208C4A506820F0F000084350607047F9
:1007A00001460020874A506820F4E060084350600A
:1007B000704701460020834A506820F4605040EAA8
:1007C000C1005060704729B17E4A527A02437D4B86
:1007D0005A7204E07B4A527A82437A4B5A727047CB
:1007E0007B49D8310860704701460020754A50683F
:1007F00020F440400843506070470021714A203285
:100800001170704A82F82010012802D004280AD101
:1008100004E001216B4A2032117005E00521694A8C
:100820002032117000E000BF00BF704769490860C6
:1008300070476449096A0143624A11627047654919
:1008400044390860704730B500210022002400239D
:100850005C4D6D6805F00C0121B1042905D0082913
:1008600023D105E05C4D056022E05B4D05601FE093
:10087000544D6D6805F47012524D6D6805F4803466
:10088000022505EB92421CB9544D554305600BE01F
:100890004C4D6D6805F400351DB1504D5543056054
:1008A00002E04D4D5543056002E04B4D056000BF31
:1008B00000BF444D6D6805F0F0010909484D6B5CBF
:1008C0000568DD4045603F4D6D6805F4E061090A4B
:1008D000434D6B5C4568DD4085603A4D6D6805F4BD
:1008E0006051C90A3E4D6B5C4568DD40C560354DC1
:1008F0006D6805F44041890B3A4D6B5CC568B5FBEA
:10090000F3F5056130BD29B12E4A526902432D4BE2
:100910005A6104E02B4A526982432A4B5A6170475C
:1009200029B1284A92690243264B9A6104E0254A7C
:1009300092698243234B9A61704729B1214AD26957
:100940000243204BDA6104E01E4AD26982431D4B08
:10095000DA61704729B11B4AD2680243194BDA6049
:1009600004E0184AD2688243164BDA60704729B116
:10097000144A12690243134B1A6104E0114A1269C6
:100980008243104B1A617047124940390860704722
:100990000F49C86470470B49C87170470948406ADD
:1009A00040F0807007494862704701460020054AC0
:1009B00092680A400AB1012000E000207047014916
:1009C00088727047001002400000FFF8FFFFF6FE3B
:1009D000000042428004424200127A0000093D00B9
:1009E000000000201000002010B50446FB4884429F
:1009F00009D101218803FFF7ADFF00214FF48040AA
:100A0000FFF7A8FF32E0F648844209D101214804EB
:100A1000FFF7ADFF00214FF40030FFF7A8FF25E0FE
:100A2000F048844209D101218804FFF7A0FF00218A
:100A30004FF48020FFF79BFF18E0EB48844209D178
:100A40000121C804FFF793FF00214FF40020FFF7B6
:100A50008EFF0BE0E548844208D101210805FFF72D
:100A600086FF00214FF48010FFF781FF10BD2DE9B4
:100A7000F04786B005460E460024A24600BFA146B8
:100A80000027B08900B100BF2F462C8A4CF6FF70BA
:100A90000440F08804432C82AC894EF6F3100440E5
:100AA000B08831890843718908430443AC81AC8A1A
:100AB0004FF6FF400440B0890443AC8201A8FFF721
:100AC000C2FEC648874202D1DDF810A001E0DDF881
:100AD0000CA0A88900F4004040B10AEBCA0000EB6A
:100AE0000A1031684900B0FBF1F807E00AEBCA00D0
:100AF00000EB0A1031688900B0FBF1F86420B8FB04
:100B0000F0F004012009642101FB1089A88900F498
:100B1000004040B1322000EBC900B0FBF1F000F022
:100B20000700044308E0322000EB09106421B0FB09
:100B3000F1F000F00F0004432C8106B0BDE8F0870F
:100B40004FF41651016000218180C18001810C2188
:100B5000418100218181704710B502460020108A32
:100B60004FF2FF0318400B884C8823438C882343A3
:100B7000CC8823431843108210BD0021018041809E
:100B80008180C180704721B1828942F40052828104
:100B900004E082894DF6FF731A4082817047F0B5F8
:100BA0000346002400260025002040F66A17B942BB
:100BB00000D100BF1846C1F3421401F01F060127FF
:100BC00007FA06F5012C01D10C3004E0022C01D10A
:100BD000103000E014301AB107682F43076002E0BC
:100BE0000768AF430760F0BD1AB1838A0B43838265
:100BF00002E0838A8B4383827047028A4FF6F07348
:100C00001A400282028A0A430282704782894FF2A6
:100C1000FF731A40828182890A438281704721B121
:100C2000828942F00202828104E082894FF6FD73DC
:100C30001A4082817047028A4FF6DF731A4002829F
:100C4000028A0A430282704721B1028A42F480423A
:100C5000028204E0028A4BF6FF731A400282704758
:100C6000C1F308028280704701468888C0F30800FB
:100C70007047818941F0010181817047028BD2B2B6
:100C80000283028B42EA012202837047028B02F444
:100C90007F420283028B0A430283704721B1828A1A
:100CA00042F02002828204E0828A4FF6DF731A400B
:100CB0008282704721B1828A42F01002828204E06F
:100CC000828A4FF6EF731A408282704721B1828A7E
:100CD00042F00802828204E0828A4FF6F7731A40DB
:100CE0008282704721B1828942F40042828103E00E
:100CF0008289C2F30E028281704721B1828A42F456
:100D00000062828204E0828A4FF2FF731A4082827C
:100D10007047828A4FF6FB731A408282828A0A43A6
:100D20008282704721B1828A42F00202828204E00C
:100D3000828A4FF6FD731A40828270470246002075
:100D4000B1F5007F00D100BF13880B400BB101202B
:100D500000E00020704701F40072B2F5007F00D17E
:100D600000BFCA430280704770B5024600240023CA
:100D70000025002040F66A16B14200D100BFC1F341
:100D8000421501F01F03012606FA03F3012D02D1DB
:100D90009689334006E0022D02D1168A334001E0E5
:100DA000968A33400C12012606FA04F41688344061
:100DB00013B10CB1012000E0002070BD10B500227D
:100DC000002340F66A14A14200D100BF0A12012498
:100DD0009440A3B2DC43048010BD00000038014001
:100DE0000044004000480040004C004000500040DB
:100DF0001FB500BFFFF726FC00F0E8FE00F000FA88
:100E000000F079FA00F001FB00F0CCFB142000F0B8
:100E10001AFF00F0E3FB142000F015FF00F0ADFB1B
:100E200000F092FCCEE0684800F0AFFA02208DF8A6
:100E3000080000208DF80900644880798DF80A00C8
:100E4000634880798DF80B00604800798DF80C00BC
:100E50005F4800798DF80D005C48C0788DF80E0071
:100E60005B48C0788DF80F00584880788DF80000F6
:100E7000574880788DF80100544840788DF802007A
:100E8000534840788DF80300504800788DF80400EE
:100E90004F4800788DF805004C4840798DF80600E1
:100EA0004B4840798DF807004AA20021012000F04C
:100EB000BDFB4BA20021022000F0B8FB0121022063
:100EC00000F091FB414989793031C8B200F076FBDE
:100ED0003F4989793031C8B200F070FB41A202214C
:100EE000084600F0A3FB394909793031C8B200F057
:100EF00065FB374909793031C8B200F05FFB3AA28F
:100F00000421022000F092FB3049C9783031C8B288
:100F100000F054FB2E49C9783031C8B200F04EFBC6
:100F200032A20621022000F081FB0121032000F003
:100F30005AFB264989783031C8B200F03FFB24497A
:100F400089783031C8B200F039FB29A20221032090
:100F500000F06CFB1D4949783031C8B200F02EFB1F
:100F60001B4949783031C8B200F028FB21A2042186
:100F7000032000F05BFB154909783031C8B200F05E
:100F80001DFB134909783031C8B200F017FB1AA2D3
:100F90000621032000F04AFB0421084600F023FB51
:100FA0000A4949793031C8B200F008FB084949794B
:100FB0003031C8B200F002FB10A20221042000F080
:100FC00035FB00BF2FE70000380000201B00002089
:100FD000140000204C454F4E20434C4F434B000023
:100FE00032300000C4EA0000D4C20000C8D50000BE
:100FF000CAB10000B7D60000C3EB0000D0C7C6DA04
:1010000000000000704700BFFEE700BFFEE700BF22
:10101000FEE700BFFEE7704770477047704700006B
:101020000CB50020019000906C48006840F48030BE
:101030006A49086000BF6948006800F40030009009
:101040000198401C0190009818B90198B0F5A06F64
:10105000F1D16248006800F4003010B10120009026
:1010600001E0002000900098012843D15C4800680E
:1010700040F010005A4908600846006820F003005C
:1010800008600846006840F0020008605348406865
:10109000524948600846406848600846406840F445
:1010A000806048600846406820F47C10486008462C
:1010B000406840F4E81048600846006840F08070DE
:1010C000086000BF4548006800F000700028F9D0B3
:1010D0004248406820F003004049486008464068A4
:1010E00040F00200486000BF3C48406800F00C003F
:1010F0000828F9D10CBD10B5FFF792FF10BD10B54F
:101100003648006840F001003449086008464068ED
:10111000344908403149486008460068324908406F
:101120002E4908600846006820F4802008600846C0
:10113000406820F4FE0048604FF41F008860FFF70D
:10114000DAFF4FF000602949086010BD10B500219A
:1011500000200022214B5B6803F00C0121B104291F
:1011600006D0082928D107E0214B224C236027E034
:101170001F4B204C236023E0184B5B6803F4701076
:10118000164B5B6803F48032022303EB904022B9D4
:10119000194B4343174C23600DE0104B5B6803F47D
:1011A000003323B1144B4343124C236003E0104B34
:1011B0004343104C236003E00D4B0E4C236000BFF3
:1011C00000BF064B5B68C3F303130C4CE15C094B97
:1011D0001B68CB40074C236010BD0000001002408C
:1011E000002002400000FFF8FFFFF6FE08ED00E0DF
:1011F00000127A002400002000093D002800002091
:1012000008B501214FF48C70FFF78AFB10208DF890
:1012100003002020ADF8000003208DF8020069468D
:101220006C48FFF7C1F814208DF803002020ADF8BA
:10123000000003208DF8020069466748FFF7B4F804
:1012400010208DF80300C002ADF8000003208DF8D7
:10125000020069466148FFF7A7F808BD002112E0C7
:1012600000225F4B1A6000F001021AB101225D4BAF
:101270001A6002E000225B4B1A6040100122584BBA
:101280001A604A1CD1B20829EADB704770B5002504
:1012900011E020215048FFF71AF9012801D144F04C
:1012A000800401204E490860641000204E49C1F8B6
:1012B000BC01681CC5B2082DEBDB00204949086061
:1012C000204670BD30B505460C46002047490860F1
:1012D0004549C1F8BC010120444908602846FFF790
:1012E000BDFF2046FFF7BAFF01203D4908600020FE
:1012F0003E49086030BD00B500218E20FFF7E2FFB7
:1013000021218020FFF7DEFF28218220FFF7DAFF6E
:1013100015218420FFF7D6FF03218620FFF7D2FF97
:1013200004218820FFF7CEFF03218A20FFF7CAFFA0
:1013300019218C20FFF7C6FF80218E20FFF7C2FF06
:1013400000BD70B505460020284908602649C1F84F
:10135000BC010120254908602846FFF77FFFFFF701
:1013600095FF04462046E11704EB11710E11E117B9
:1013700004EB11710911A4EB0111CCB206EB86004C
:1013800004EB4000C4B2204670BD70B50546002491
:1013900000BF06E0285DFFF7D4FF15490855601C23
:1013A000C4B2072CF6DB002411E01148005D0A21CD
:1013B00090FBF1F201FB12000E4908550C48005D4C
:1013C0000A2190FBF1F00A490855601CC4B2072CB1
:1013D000EBDB70BD00100140000C0140002001401B
:1013E000BC01244294812142000024429401224203
:1013F0001B0000201400002001B502E00098401EF0
:10140000009000980028F9D108BD08B501214FF4DB
:10141000C070FFF785FA4FF44040ADF8000010208F
:101420008DF8030001208DF802006946C348FEF7DD
:10143000BBFF0220ADF8000010208DF80300012052
:101440008DF802006946BE48FEF7AEFF08BD70B5D4
:101450000446002520E004F08000802803D101022A
:10146000B648FFF74EF804F0800020B94FF4004171
:10147000B248FFF748F84FF48041B048FFF743F80F
:101480002320FFF7B9FF4FF48041AC48FFF739F84C
:101490006006040E681CC5B2082DDCDB70BD70B59B
:1014A0000026002500241FE07006060E4FF4804140
:1014B000A248FFF728F81920FFF79EFF4FF480415C
:1014C0009E48FFF71EF81420FFF796FF4FF4804167
:1014D0009A48FFF718F808219A48FFF705F808B16D
:1014E000701CC6B2601CC4B2082CDDDB00241FE0F7
:1014F0006806050E4FF480419048FFF704F8192064
:10150000FFF77AFF4FF480418C48FEF7FAFF19206D
:10151000FFF772FF4FF480418848FEF7F4FF08217F
:101520008848FEF7E1FF08B1681CC5B2601CC4B270
:10153000082CDDDB06F0F00005F00F010844C0B216
:1015400070BD10B500BFFC20FFF781FFFFF7A7FFBC
:101550000020B0F5004FF6D010BD10B50446FFF7DF
:10156000F0FFF820FFF773FF04F0F000FFF76FFFC4
:101570002107080EFFF76BFF10BD10B540F6FF7096
:10158000FFF73AFF3020FFF7E8FF0C20FFF7E5FFF9
:101590000120FFF7E2FF0220FFF7DFFF8020FFF7C7
:1015A000DCFF10BD10B5FFF730FF00F00FFB02218C
:1015B0006348FEF7A6FFFFF7E0FF10BD10B5044635
:1015C000FFF7BFFFFA20FFF742FF04F0F000FFF73C
:1015D0003EFF2107080EFFF73AFF10BD10B50120AE
:1015E000FFF7BBFF10BD70B505460C46012D06D0B8
:1015F000022D09D0032D0CD0042D14D10EE044F09F
:101600008000FFF7AAFF0FE044F09000FFF7A5FF6E
:101610000AE044F08800FFF7A0FF05E044F09800DE
:10162000FFF79BFF00E000BF00BF70BD2DE9F04158
:1016300006460F46144639463046FFF7D4FF0025CC
:1016400004E0605DFFF7BAFF681CC5B2605D00286A
:10165000F7D1BDE8F0812DE9F04106460F4614466A
:1016600039463046FFF7BFFF002506E0615D3031A7
:10167000C8B2FFF7A3FF681CC5B2605D0028F5D1B2
:10168000BDE8F0812DE9FC410746884615464146F4
:101690003846FFF7A8FF0A20B5FBF0F100FB115018
:1016A0008DF804006420B5FBF0F100FB11500A2115
:1016B000B0FBF1F08DF803004FF47A70B5FBF0F158
:1016C00000FB11506421B0FBF1F0C0B28DF80200B4
:1016D00042F21070B5FBF0F100FB11504FF47A713B
:1016E000B0FBF1F0C0B28DF8010042F21070B5FB12
:1016F000F0F0C0B28DF80000002405E01DF80400F1
:1017000000B103E0601CC4B2052CF7DB00BF052C60
:1017100001D1601EC4B2042C02D13020FFF797FE25
:10172000264607E01DF806103031C8B2FFF78FFEDD
:10173000701CC6B2052EF5DBBDE8FC81001C014023
:10174000002001400018014008B501214FF4EA7063
:10175000FFF7E6F810208DF8030040F2F110ADF825
:10176000000003208DF802006946FC48FEF71CFECD
:101770004FF48070ADF800006946F948FEF714FE9A
:10178000C020ADF800006946F648FEF70DFE4FF4A4
:101790006050ADF800006946F348FEF705FE4FF4CF
:1017A000F060ADF800006946F048FEF7FDFD04204A
:1017B0008DF803000320ADF800008DF802006946A3
:1017C000EA48FEF7F1FD08BD0A281BD2DFE800F069
:1017D000051B324C647D97AFC5DB0021E44A1160E4
:1017E000E44AC2F89811E24A083A1160121F1160E7
:1017F000E14A1160E14A11600121121F1160DD4AC6
:10180000C2F8A011D7E00121D94A11600021D94ABC
:10181000C2F89811D64A083A11600121121F1160CE
:10182000D54A1160D54A1160121F1160D14AC2F821
:10183000A011C0E00021CE4A1160CE4AC2F8981132
:101840000121CB4A083A11600021121F1160CA4AD7
:1018500011600121C94A11600021121F116001218C
:10186000C44AC2F8A011A6E00021C14A1160C14AD1
:10187000C2F89811BE4A083A1160121F1160012186
:10188000BD4A1160BD4A11600021121F1160012183
:10189000B84AC2F8A0118EE00121B54A11600021BA
:1018A000B44AC2F89811B24A083A11600121121FD5
:1018B0001160B14A11600021B04A1160121F11601D
:1018C0000121AC4AC2F8A01175E00021A84A1160BC
:1018D0000121A84AC2F898110021A54A083A1160CE
:1018E000121F11600121A44A11600021A34A116056
:1018F000121F116001219F4AC2F8A0115BE0002174
:101900009B4A116001219B4AC2F898110021984A14
:10191000083A1160121F1160974A1160974A1160CE
:10192000121F11600121934AC2F8A01143E0002167
:101930008F4A11608F4AC2F898118D4A083A116097
:101940000121121F11608C4A11608C4A1160121F14
:101950001160884AC2F8A0112DE00021844A11606C
:10196000844AC2F89811824A083A1160121F116025
:10197000814A1160814A1160121F116001217D4A64
:10198000C2F8A01117E00021794A1160794AC2F823
:101990009811774A083A1160121F11600121764AA6
:1019A00011600021754A1160121F11600121714AF6
:1019B000C2F8A01100BF00BF704709281DD2DFE8A0
:1019C00000F0CB051D364F68819AB30001216C4AA7
:1019D00011600021674AC2F880116A4A1160684AA2
:1019E000121F1160674A121F1160121F1160654AB1
:1019F000121D1160644AC2F8AC11ADE00021604ACA
:101A0000116001215B4AC2F8801100215D4A11601A
:101A10005B4A121F11605B4A121F1160121F116096
:101A2000584A121D1160584AC2F8AC1194E00021C6
:101A3000534A11604F4AC2F880110121514A116086
:101A400000214F4A121F11604E4A121F1160121FCF
:101A500011604C4A121D11604B4AC2F8AC117BE078
:101A60000021474A1160434AC2F88011454A11607B
:101A70000121434A121F11600021424A121F1160C6
:101A8000121F11603F4A121D11603F4AC2F8AC118B
:101A900062E000213A4A1160364AC2F88011394AA0
:101AA0001160374A121F11600121364A121F11605E
:101AB0000021121F1160334A121D1160324AC2F810
:101AC000AC1149E000212E4A11602A4AC2F8801167
:101AD0002C4A11602A4A121F11602A4A121F1160F3
:101AE0000121121F11600021264A121D1160264A91
:101AF000C2F8AC1130E00021214A11601D4AC2F841
:101B00008011204A11601E4A121F11601D4A121FC7
:101B10001160121F116001211A4A121D116000216B
:101B2000194AC2F8AC1117E00021154A1160114A98
:101B3000C2F88011134A1160114A121F1160114A34
:101B4000121F1160121F11600E4A121D1160012137
:101B50000D4AC2F8AC1100BF00BF70470020014021
:101B60000008014000100140001C01400018014025
:101B70009C01244200002442A00121429C012242F7
:101B8000B4812342A40123420080234200200B4958
:101B900008600B49C1F880010A4908600749091F1C
:101BA00008600849091F0860091F08600549091DE8
:101BB00008600549C1F8AC0170470000B4812342B8
:101BC00000002442A40123420080234210B56FF09C
:101BD0000400FEF76AFB2E4800682E49B0FBF1F0C6
:101BE0002D4908700846007800EB4001C1EBC01099
:101BF0004FF6FF7101EAC0002849088010BD014678
:101C0000254A12784A434FF0E0235A6100229A6134
:101C10001A46126942F001021A6100BF4FF0E02239
:101C2000106900F001021AB100F48032002AF5D0E8
:101C30004FF0E022126922F001024FF0E0231A6116
:101C400000229A6170470146144A12884A434FF0B5
:101C5000E0235A6100229A611A46126942F0010299
:101C60001A6100BF4FF0E022106900F001021AB1C2
:101C700000F48032002AF5D04FF0E022126922F001
:101C800001024FF0E0231A6100229A6170470000C0
:101C90002400002000127A004600002048000020A6
:101CA000014600BF704700BF494A128802F0400257
:101CB000002AF9D0C2B2464B1B1D1A80704710B5DE
:101CC00086B00446012144F20400FEF729FE4FF4D9
:101CD0000070ADF8140003208DF8160018208DF860
:101CE000170005A93B48FEF75FFB4FF48060ADF895
:101CF000140004208DF8170005A93648FEF754FBA0
:101D000025208DF8000003208DF801008DF80200D9
:101D100001208DF803006846FEF77DFA019400204B
:101D2000ADF80800ADF80A00ADF80C00ADF81000F1
:101D30000C20ADF80E0001A92548FEF798FE0122FF
:101D400040F225512248FEF72AFF01212048FEF7E4
:101D50001AFF06B010BD10B540F225511C48FFF720
:101D600003F810B31A48FEF77FFFC4B21A48008880
:101D700000F40040C8B91848008800F4804060B101
:101D80000A2C03D000201449088020E01248008863
:101D900040F400401049088019E00D2C06D10E488F
:101DA000008840F480400C49088010E00A48008810
:101DB000C0F30D0009490C5407480088401C06492F
:101DC000088008460088C72801DD0020088010BD73
:101DD000003801400008014050000020540000205D
:101DE00070477047704770477047754600F02CF891
:101DF000AE4605006946534620F00700854618B0F8
:101E000020B5FEF7F1F9BDE820404FF000064FF095
:101E100000074FF000084FF0000B21F00701AC461F
:101E2000ACE8C009ACE8C009ACE8C009ACE8C0093E
:101E30008D46704710B50446AFF300802046BDE8DC
:101E40001040FEF7BCB90000004870471C0100209C
:101E5000701E000800000020540000006C01000803
:101E6000C41E0008540000202C0700008801000850
:101E70000000000001020304010203040607080930
:101E8000020406080000000000000000000000003E
:101E90000000000000A24A04000000000000000052
:101EA000010203040607080981838587898B8D80D9
:101EB000828486888A8C00000000000000000000F8
:041EC000000000001E
:0400000508000131BD
:00000001FF
